:020000040800F2
:10000000100800207D200008E1050008E305000835
:10001000E7050008EB050008EF05000800000000F8
:10002000000000000000000000000000F3050008D0
:10003000F505000800000000F7050008F9050008B4
:1000400097200008972000089720000897200008B4
:1000500097200008972000089720000897200008A4
:100060009720000897200008972000089720000894
:100070009720000897200008972000089720000884
:100080009720000897200008972000089720000874
:100090009720000897200008972000089720000864
:1000A0009720000897200008972000089720000854
:1000B000371D00089720000839180008972000080D
:1000C0009720000897200008972000089720000834
:1000D00097200008AB1F0008972000089720000811
:1000E0009720000897200008972000089720000814
:1000F0009720000897200008972000089720000804
:100100009720000897200008F9170008972000089A
:1001100097200008972000089720000897200008E3
:1001200097200008972000089720000897200008D3
:1001300000F002F800F050F80AA090E8000C8244A9
:100140008344AAF10107DA4501D100F045F8AFF286
:10015000090EBAE80F0013F0010F18BFFB1A43F0A5
:1001600001031847085C0000285C0000103A24BF17
:1001700078C878C1FAD8520724BF30C830C144BF0C
:1001800004680C607047000000230024002500264E
:10019000103A28BF78C1FBD8520728BF30C148BFEA
:1001A0000B607047662905F00E85642902F086858C
:1001B000002070471FB503F025FA0400002000213D
:1001C00004F078FD401C60600020002104F05CFD1C
:1001D000E0601FBD10B510BD03F03EFB1146FFF7F8
:1001E000E9FF00F009F803F0B7FD03B4FFF7F2FFF1
:1001F00003BC01F07FFE00008AB0002700200890B9
:1002000080468146079082460126069001F008FE4E
:100210004FF4A06002F0D6FC4FF4165001F079FEC6
:1002200001F0EAF901F0D0FC47214FF6FF7001F030
:10023000E6FC472144F61F6001F006FA40F2DC516B
:10024000CE4801F093F940F2DC51CC4801F090F92E
:1002500001F06AFA47214CF24F3001F0A0FA01F0A8
:100260002BFB89E1681C85B201F018FDC4490860C8
:100270000021C348006805F059FA09D04146C0483A
:10028000006805F02BFC8346BE4905F0EBFB03D26A
:10029000BB48C0F8008002E0B948D0F8008042F2C4
:1002A0001070854218DDB648006805F0E3F8CDE926
:1002B0000401B548006805F0DDF8CDE90201DDE98B
:1002C0000401CDE90001B1A0DDE9022302F0EAFC5E
:1002D000B2A002F0E7FC0025012E01D0032E73D15D
:1002E000AF48008800F4004000286ED0AC4890F879
:1002F00000A000200690BAF1020F1CDAA94800788D
:100300003038002816DDA74800783038042811DA84
:10031000A44800783038C6B23146A3A002F0C2FC2F
:100320009EA002F0BFFC00209D49088064219D48EA
:1003300002F0FEFD7AE09B480078742876D19C4854
:1003400002F092FDC0B207909949491C481E079AD5
:1003500002F0A9FD964804F015FCCDE9040104F073
:10036000BFFC0746934804F00DFCCDE9040104F0FE
:10037000E1FD04469049384605F074FA0DD28F49E4
:10038000384605F06FFB08D2384605F003FA1FFA2D
:1003900080FB5946794801F0E9F80021384605F01C
:1003A000C5F909D10021089805F0C0F904D140F23F
:1003B000DC51724801F0DAF8384605F0EBF9B0F19B
:1003C000000B03DB584603E077E036E0CBF100009A
:1003D000052806DA0021384605F0A8F901D00120E9
:1003E00006900021384605F03DFA03D2744875495D
:1003F000486202E07448734948620897B4F5FA7F8E
:1004000007DD40F6C410844203DAA1B25B4801F074
:10041000AFF80020624908806421624802F088FD3C
:100420000A2001F03AFD05F5FA6085B200205C492A
:10043000088064215B4802F07BFD069801283CD1CE
:10044000384601F05BFA5F49486A604905F00AFAEC
:100450000BD25C49486A5E4905F004FB05D240F2C4
:10046000DC51464801F082F821E05649486A594972
:1004700005F0F8FA05D24FF4C861404801F076F86B
:1004800015E05049486A544905F0ECF905D24FF49B
:10049000AF613A4801F06AF809E04A49486A05F054
:1004A00095F91FFA80FB5946344801F05FF8142093
:1004B00001F0F3FC05F5FA7085B2022E5CD1B9F1BA
:1004C000020F06D140F2AA512C4801F051F84FF02A
:1004D00000093348008800F40040A8B3304890F881
:1004E00000A0BAF1020F15DA2E4800783038002843
:1004F0002ADD2C4800783038042825DA294800788D
:100500003038C6B20020264908806421254802F010
:100510000FFD19E0274804F035FBCDE9040104F094
:1005200009FD0446B4F5FA7F07DD40F6C4108442A5
:1005300003DAA1B2114801F01BF800201849088025
:100540006421184802F0F4FC322001F0A6FC0C48AB
:10055000006801F074FA2149486A05F037F91FFA7A
:1005600080FB5946054801F001F805F5FA7085B29F
:1005700009F1010000F0FF0974E6000000040040EA
:100580002800002000004040180000207225302E76
:1005900032662025302E3266000000000D0A000071
:1005A0003C000020D20000206D6F64653A25640095
:1005B0009A010020A40100200080D4440080A244BD
:1005C0000000B4449400002000C0C1440000BE44B8
:1005D0000080B6440000C8440000AF446000002022
:1005E000704700BFFEE700BFFEE700BFFEE700BFA9
:1005F000FEE7704770477047704700000CB5002059
:10060000019000906C48006840F480306A490860AE
:1006100000BF6948006800F4003000900198401C59
:100620000190009818B90198B0F5A06FF1D1624817
:10063000006800F4003010B10120009001E00020BB
:1006400000900098012843D15C48006840F01000F9
:100650005A4908600846006820F003000860084610
:10066000006840F002000860534840685249486002
:100670000846406848600846406840F4806048602A
:100680000846406820F47C1048600846406840F402
:10069000E81048600846006840F08070086000BFBD
:1006A0004548006800F000700028F9D042484068D2
:1006B00020F00300404948600846406840F00200CE
:1006C000486000BF3C48406800F00C000828F9D1A1
:1006D0000CBD10B5FFF792FF10BD10B5364800688D
:1006E00040F0010034490860084640683449084039
:1006F0003149486008460068324908402E49086080
:100700000846006820F4802008600846406820F40D
:10071000FE0048604FF41F008860FFF7DAFF4FF0DB
:1007200000602949086010BD10B50021002000229A
:10073000214B5B6803F00C0121B1042906D0082984
:1007400028D107E0214B224C236027E01F4B204C8F
:10075000236023E0184B5B6803F47010164B5B6852
:1007600003F48032022303EB904022B9194B434338
:10077000174C23600DE0104B5B6803F4003323B18A
:10078000144B4343124C236003E0104B4343104C83
:10079000236003E00D4B0E4C236000BF00BF064BEF
:1007A0005B68C3F303130C4CE15C094B1B68CB4043
:1007B000074C236010BD00000010024000200240E2
:1007C0000000FFF8FFFFF6FE08ED00E000127A00DF
:1007D0000000002000093D000400002010B5044680
:1007E000FE48844208D10121C01401F09DFF002180
:1007F000E01401F099FFC4E0B4F1804F08D1012169
:10080000084601F09EFF0021012001F09AFFB8E0A8
:10081000F348844208D10121022001F092FF002117
:10082000022001F08EFFACE0EE48844208D10121A5
:10083000042001F086FF0021042001F082FFA0E0E7
:10084000E948844208D10121082001F07AFF002103
:10085000082001F076FF94E0E448844208D10121A9
:10086000102001F06EFF0021102001F06AFF88E0E7
:10087000DF48844208D10121202001F062FF0021DD
:10088000202001F05EFF7CE0DA48844208D101219B
:10089000401401F049FF0021601401F045FF70E0B1
:1008A000D548844209D10121C80401F03DFF00214F
:1008B0004FF4002001F038FF63E0D048844209D1B2
:1008C0000121080501F030FF00214FF4801001F0F4
:1008D0002BFF56E0CA48844209D10121480501F0A6
:1008E00023FF00214FF4001001F01EFF49E0C5482E
:1008F000844208D10121402001F023FF0021402043
:1009000001F01FFF3DE0C048844208D10121802052
:1009100001F017FF0021802001F013FF31E0BB48F8
:10092000844208D10121801501F00BFF0021A015A0
:1009300001F007FF25E0B648844209D101210804EF
:1009400001F0F2FE00214FF4803001F0EDFE18E0DE
:10095000B048844209D10121480401F0E5FE00219C
:100960004FF4003001F0E0FE0BE0AB48844208D1C8
:100970000121880401F0D8FE00214FF4802001F00D
:10098000D3FE10BD00220288944B98420ED0994BA2
:1009900098420BD0B0F1804F08D0914B984205D0CF
:1009A000904B984202D0904B984204D14FF68F73EF
:1009B0001A404B881A438D4B984207D08C4B984273
:1009C00004D04FF6FF431A40CB881A4302808B882D
:1009D00083850B880385814B98420BD0854B9842C9
:1009E00008D08B4B984205D08A4B984202D08A4B54
:1009F000984201D10B7A038601238382704770B538
:100A0000002400220023058C4FF6FE763540058435
:100A1000028C8388048B4FF68F752C40B51E2C40BA
:100A20000D882C43751E2A400D892A434D882A4380
:100A30006A4DA8420BD06F4DA84208D0744DA84211
:100A400005D0744DA84202D0734DA84213D14FF681
:100A5000F7752A404D892A434FF6FB752A408D8849
:100A60002A434FF6FF652B404FF6FF552B408D89EB
:100A70002B43CD892B4383800483CD8885860284D4
:100A800070BD70B5002400220023058C4FF6EF7670
:100A900035400584028C8388048B48F6FF752C4012
:100AA0004FF6FF452C400D884FF6FF7606EA0525E8
:100AB0002C434FF6DF752A400D8906EA05152A43B7
:100AC0004D8806EA05152A43444DA84202D0494DF7
:100AD000A8421DD14FF67F752A404D894FF6FF760B
:100AE00006EA05152A434FF6BF752A408D8806EAA7
:100AF00005152A434FF6FF352B404FF2FF752B406B
:100B00008D8906EA85052B43CD8906EA85052B43A9
:100B100083800483CD880587028470BD70B500246E
:100B200000220023058C4FF6FF6635400584028CB9
:100B30008388848B4FF68F752C404FF6FC752C40C4
:100B40000D882C434FF6FF552A400D894FF6FF764E
:100B500006EA05252A434D8806EA05252A431F4D46
:100B6000A84202D0234DA8421DD14FF2FF752A4062
:100B70004D894FF6FF7606EA05252A434FF6FF35E5
:100B80002A408D8806EA05252A434EF6FF752B403C
:100B90004DF6FF752B408D8906EA05152B43CD894F
:100BA00006EA05152B4383808483CD8885870284DC
:100BB00070BD70B5002200230024058C4EF6FF7630
:100BC00035400584038C8488828B48F6FF752A4063
:100BD0004FF6FF452A400D8820E00000002C014020
:100BE0000004004000080040000C004000100040DD
:100BF0000014004000340140004C0140005001400E
:100C00000054014000180040001C0040002000403B
:100C10000040014000440140004801404FF6FF768B
:100C200006EA05252A434DF6FF752B400D8906EA95
:100C300005352B434D8806EA05352B43FA4DA8426E
:100C400002D0FA4DA84208D14BF6FF752C408D8991
:100C50004FF6FF7606EA85152C4384808283CD8883
:100C6000A0F84050038470BD828B4FF2FF331A40CE
:100C70008283828B4FF6FF7303EA01231A43828338
:100C80007047F0B50C461546002200210026078C5F
:100C90004EF6FF7C07EA0C070784828B018C4FF627
:100CA000FF7707EA043640F6FF473A404FF6FF77F2
:100CB00007EA05273A434FF6FF7707EA03373A4337
:100CC000D94FB8420ED0D94FB8420BD0B0F1804FB7
:100CD00008D0D74FB84205D0D64FB84202D0D64F31
:100CE000B84206D14DF6FF77394046F48057394374
:100CF00005E047F6FF57394044F480573943828373
:100D00000184F0BD828B4FF6F3731A408283828B8D
:100D10000A4382837047F0B50C4615460022002135
:100D20000026078C4FF6FF6C07EA0C070784828BBE
:100D3000018C4FF6FF7707EA04264FF60C773A400E
:100D40004FF6FF7707EA03172F433A43B64FB842EF
:100D50000ED0B64FB8420BD0B0F1804F08D0B44F90
:100D6000B84205D0B34FB84202D0B34FB84206D113
:100D70004FF6FF57394046F48077394305E04FF28C
:100D8000FF57394044F48077394382830184F0BDB2
:100D9000028B4FF2FF331A400283028B4FF6FF7330
:100DA00003EA01231A4302837047F0B50C46154647
:100DB000002200210026078C4FF6EF7C07EA0C0783
:100DC0000784028B018C4FF6FF7707EA041640F682
:100DD000FF473A404FF6FF7707EA03373A434FF6AB
:100DE000FF7707EA05273A438F4FB8420ED08F4F5F
:100DF000B8420BD0B0F1804F08D08D4FB84205D02B
:100E00008C4FB84202D08C4FB84206D14FF6DF77F4
:100E1000394046F01007394305E04FF65F77394017
:100E200044F01007394302830184F0BD028B4FF672
:100E3000F3731A400283028B0A4302837047F0B5B2
:100E40000C46154600220021068C4FF6FE773E40E8
:100E50000684028B018C4FF60C7632407E1C06EA2B
:100E600003162E433243704EB0420ED06F4EB04246
:100E70000BD0B0F1804F08D06D4EB04205D06D4E12
:100E8000B04202D06C4EB04206D14FF6FD763140F2
:100E900044F00106314305E04FF6F576314044F069
:100EA0000106314302830184F0BD70B505460C464E
:100EB0005D4885420ED05D4885420BD0B5F1804F2C
:100EC00008D05B48854205D05A48854202D05A482E
:100ED000854200D100E000BF208850B92389A28854
:100EE00061882846FFF7ABFFE1882846FFF79EFFA1
:100EF00025E0208804280AD12389A2886188284611
:100F0000FFF753FFE1882846FFF742FF17E02088EC
:100F100008280AD12389A28861882846FFF7FBFEAA
:100F2000E1882846FFF7EEFE09E02389A288618860
:100F30002846FFF7A6FEE1882846FFF795FE70BD1C
:100F40002DE9F04105460C4600260127608808B9C6
:100F5000022600E00026A088012801D1022700E037
:100F600001272088A0B92389A28861882846FFF735
:100F700066FFE1882846FFF759FF23893A46314644
:100F80002846FFF712FFE1882846FFF701FF13E02C
:100F90002389A28861882846FFF707FFE188284651
:100FA000FFF7F6FE23893A4631462846FFF747FF0A
:100FB000E1882846FFF73AFFBDE8F0810A884B88B0
:100FC0001A438B881A43CB881A430B891A434B89DF
:100FD0001A438B891A43A0F8442070474FF6FF71DB
:100FE000818000210180C180418001727047002111
:100FF000018041808180C180018141818181C181E5
:101000007047002101804180012181800021C18041
:10101000018170470021018041808180C180018170
:101020004181818170470000002C01400034014063
:101030000004004000080040000C004021B102887C
:1010400042F00102028004E002884FF6FE731A406B
:101050000280704731B1B0F8442042F40042A0F859
:10106000442005E0B0F84420C2F30E02A0F844206A
:1010700070471AB183890B43838102E083898B43D4
:10108000838170478182704741EA0203A0F84830AB
:1010900070471AB183890B43838102E083898B43B4
:1010A0008381704701894FF6F872114001817047C2
:1010B0000A46002101894FF68F73194011430181BF
:1010C000704730B504460D4629462046FFF7F0FF2D
:1010D000208940F00700208130BD2DE9F041044611
:1010E0000D4616461F46602D06D13B46012231466D
:1010F0002046FFF75AFE05E03B46012231462046D6
:10110000FFF79DFE29462046FFF7D2FF208940F0D9
:1011100007002081BDE8F08130B50C46002101892F
:10112000C9B24FF6FF7505EA032515432543294348
:10113000018130BD2DE9F04105460E46174698461F
:10114000002443463A4631462846FFF7E5FF2C89FE
:101150004FF6F870044044F007044FF68F700440D7
:1011600044F070042C81BDE8F081F0B504460D46D2
:1011700016461F463B46324629462046FFF7CCFF1F
:10118000208940F480402081F0BD01858282704733
:101190000A46002101884FF68F73194011430180E0
:1011A0007047F0B50C4615461E460021002200236C
:1011B0000189028B038C4FF6F877394021434FF6B3
:1011C000FC473A4040F201173A434FF6DD773B4087
:1011D0004FF6FF7707EA06172F433B43018102834F
:1011E0000384F0BD0A460021018B4FF68F7319402E
:1011F0001143018370470A460021018B48F6FF73B3
:1012000019404FF6FF7303EA022319430183704725
:101210000A460021818B4FF68F7319401143818359
:1012200070470A460021818B48F6FF7319404FF63C
:10123000FF7303EA022319438183704721B10288B7
:1012400042F08002028004E002884FF67F731A4069
:101250000280704721B1828842F00402828004E05B
:1012600082884FF6FB731A408280704721B18288D2
:1012700042F00802828004E082884FF6F7731A4039
:101280008280704721B1828842F00102828004E0AE
:1012900082884FF6FE731A40828070470A4600210A
:1012A000018B4FF6F77319401143018370470A46CB
:1012B0000021018B4FF2FF7319404FF6FF7303EAD1
:1012C00002231943018370470A460021818B4FF6A0
:1012D000F77319401143818370470A460021818BBF
:1012E0004FF2FF7319404FF6FF7303EA02231943CD
:1012F000818370470A460021018B4FF6FB7319402A
:101300001143018370470A460021018B4FF6FF33DA
:1013100019404FF6FF7303EA022319430183704714
:101320000A460021818B4FF6FB73194011438183DC
:1013300070470A460021818B4FF6FF3319404FF664
:10134000FF7303EA02231943818370470A46002191
:10135000018B4FF67F7319401143018370470A4692
:101360000021018BC1F30E014FF6FF7303EA022344
:101370001943018370470A460021818B4FF67F7322
:1013800019401143818370470A460021818BC1F3C4
:101390000E014FF6FF7303EA02231943818370475E
:1013A0000A460021018C4FF6FD7319401143018458
:1013B00070470A460021018C4FF6F773194011431C
:1013C000018470470A460021018C4FF6DF731940F3
:1013D0004FF6FF7303EA02131943018470470A466C
:1013E0000021018C4FF67F7319404FF6FF7303EA1B
:1013F00002131943018470470A460021018C4FF6FD
:10140000FF5319404FF6FF7303EA02231943018487
:1014100070470A460021018C4FF2FF7319404FF6C6
:10142000FF7303EA02231943018470470A4600212F
:10143000018C4DF6FF7319404FF6FF7303EA023338
:1014400019430184704730B5002301248C40A3B2B6
:10145000048C9C430484048C02FA01F5ADB22C4345
:10146000048430BD30B5002304248C40A3B2048C26
:101470009C430484048C02FA01F5ADB22C4304842D
:1014800030BD70B5034600200024184618300125F1
:101490008D40ACB21D8CA5431D8409B1082909D12A
:1014A00000EB6100056825F07005056005681543CF
:1014B00005600EE00D1FC5F34E052844056825F4B0
:1014C000E045056005684FF6FF7606EA02263543DB
:1014D000056070BD21B1028842F00202028004E082
:1014E00002884FF6FD731A400280704721B10288CE
:1014F00042F00402028004E002884FF6FB731A40B7
:101500000280704721B1828842F08002828004E02C
:1015100082884FF67F731A408280704702884FF6A8
:10152000F7731A40028002880A430280704782885B
:101530004FF68F731A40828082880A4382807047F8
:1015400002894FF6F8731A40028102890A43028128
:10155000704702894FF67F731A40028102890A435D
:10156000028170478184704781857047818670470A
:101570000187704781877047A0F840107047028844
:101580004FF6FF431A40028002880A4302807047E8
:101590000146888E70470146088F70470146888F44
:1015A00070470146B1F8400070470146888C70478B
:1015B0000146088D704702460020138A0B400BB18C
:1015C000012000E000207047CA430282704730B516
:1015D0000246002000230024158A05EA01039589AC
:1015E00005EA010413B10CB1012000E0002030BD78
:1015F000CA4302827047000008B50121242001F08F
:1016000079F84FF48070ADF8000010208DF80300D9
:1016100003208DF802006946094800F0AFFD4FF441
:101620008071074800F057FE0420ADF800006946BD
:10163000044800F0A3FD0421024800F04CFE08BD60
:10164000000801400014014030B589B005460C4641
:101650000121022001F05BF80121052001F04AF888
:101660008020ADF8200018208DF8230003208DF88D
:10167000220008A92A4800F081FDADF81850ADF805
:1016800014400020ADF81A00ADF8160005A9254851
:10169000FFF778F96020ADF804000120ADF80600EE
:1016A0000020ADF80C00ADF80A0001A91D48FFF7B5
:1016B000E8F908211B48FFF7FAFD01211948FFF757
:1016C000BDFC0121022001F022F80121052001F0DA
:1016D00011F84020ADF8200018208DF823000320D9
:1016E0008DF8220008A90E4800F048FD6020ADF8F2
:1016F00004000120ADF806000020ADF80C00ADF8A4
:101700000A0001A90748FFF77AF908210548FFF701
:10171000C5FD01210348FFF791FC09B030BD000071
:1017200000080140000400401CB50121042000F025
:10173000EEFF0121082000F0DDFF4020ADF804009D
:1017400028208DF8070001A9524800F017FD40211C
:10175000504800F0C2FD00204F4908804880012019
:1017600088800020C88008814C48FFF79EFB1E201F
:101770008DF8000000208DF801008DF80200012096
:101780008DF80300684601F022FA01220221434845
:10179000FFF76FFC01214148FFF750FC1CBD7FB5EE
:1017A00005460C460121082000F0B1FFADF80850B5
:1017B000ADF804400020ADF80A00ADF8060001A91C
:1017C0003748FFF7DFF8012211463548FFF751FC93
:1017D00032208DF8000000208DF8010003208DF8E4
:1017E000020001208DF80300684601F0F0F90121A4
:1017F0002B48FFF723FC7FBD2DE9F041012128484C
:10180000FFF7E5FEB0B12748006803F0C2FB0646CB
:10181000254A264B03F010FC044603F061FA2449E4
:1018200008600020234908701E49086001211C48F7
:10183000FFF7DEFEBDE8F08110B51E48007800F02D
:10184000800008BB02211548FFF7C1FEE0B119482E
:10185000007800F0400028B112480068401C11498F
:10186000086011E000201349087000210C48FFF7C0
:1018700079FE1048007840F040000E490870094891
:101880000068401C0749086003210448FFF7B0FEC8
:1018900010BD0000000C0140540000200008004072
:1018A000000C00401C000020DBF97E6ABC74933FF2
:1018B00018000020140000200020AF490860886153
:1018C000C8610862AD4848624FF07C508862AC48FD
:1018D000C86200200863AB490860AB48486000203C
:1018E0008860C86008614861A4484862A748886267
:1018F0004FF07C50C8620020086370472DE9F04724
:101900000446204603F0B6FD0546A14AA14B03F06C
:1019100091FC0FD29849486A9F4904F0A3F809D274
:101920009E49204603F0D2FF05469D4903F0CEFDB7
:10193000914948620021204603F094FF05D299485E
:10194000006880F00040974908608B4804600146B9
:1019500008689449096804F0C1F887498861084615
:10196000C1694FF0804003F0B1FF8246824881692F
:10197000504604F0A8F881467F48016A484603F0C3
:10198000A5FD80467C48016B404603F09FFF06465C
:10199000794A9169D06A03F099FF8146764AD16904
:1019A000906904F09BF882467348816A504603F0C0
:1019B0008DFF8046494603F089FD0746314603F016
:1019C00085FD05466C48416A284603F07FFD6A495B
:1019D00048620846C069086208468069C861486A6A
:1019E000714904F03FF802D26F4863494862002110
:1019F000204604F037F817D25F49486A6B4903F074
:101A000031FF11D25C49486A5C4904F02BF80BD2D3
:101A1000204603F02FFD05465D4A5E4B03F0D0FAE9
:101A200002D26248544948625349486A604903F007
:101A300019FF02D25E4850494862BDE8F0872DE99F
:101A4000F04782464F48C0F808A0024691685068A7
:101A500004F044F84B49C860084601694FF08040E3
:101A600003F034FF81464748C168484604F02BF82C
:101A7000804644484169404603F028FD07464148F6
:101A8000016B384603F022FF05463E4AD168D06A12
:101A900003F01CFF80463B4A1169D06804F01EF831
:101AA00081463848816A484603F010FF07464146A0
:101AB00003F00CFD0646294603F008FD04463148B4
:101AC0000168204603F0FFFF2E49086008460069C0
:101AD00048610846C068086188684FF07E5103F08D
:101AE000C1FF04D84FF07E502649086008E0254920
:101AF0000868002103F0B6FE02D8002021490860E2
:101B00002049886803F0B6FC04464FF03332294B75
:101B100003F056FA02D200201A49086019490868F1
:101B20004FF0804103F09EFF03D24FF080401549F3
:101B300008601449086803F09DFC80461E4A1F4B4C
:101B400003F07AFA06464FF066321D4B03F0FAF8BE
:101B5000044603F0C5F80B494862086803F08AFCA4
:101B600004460B4A174B03F02BFA02D203480549EF
:101B70004862BDE8F0870000940000200080BB446C
:101B800000004842600000209A99193F0000F04090
:101B90009A9999999999C93F0000BE440000A040C4
:101BA0000040C444180000200000CD440000C3449D
:101BB0000080A2443333D33FF2D24D6210684C40D0
:101BC000661498409999B93F08B50121102000F09A
:101BD00091FD0121084600F09AFD03208DF80200D6
:101BE00010208DF803000820ADF8000069468048F9
:101BF00000F0C4FA08217E4800F06FFB08BD30B544
:101C000085B005460C460121084600F080FD012103
:101C1000042000F06FFD0120ADF8100028208DF8A1
:101C2000130004A9734800F0A9FA0121714800F0DB
:101C300054FBADF80850ADF804400020ADF80A00A0
:101C4000ADF8060001A94FF08040FEF79BFE002092
:101C5000694908804880012088800020C880088168
:101C60004FF08040FFF721F91C208DF80000022082
:101C70008DF8010000208DF8020001208DF803008E
:101C8000684600F0A4FF012203219007FFF7F1F955
:101C900001218807FFF7D2F905B030BD2DE9F041E9
:101CA00000240025A046012054490860142000F0BB
:101CB000D0F800205249C1F88C015248007800F059
:101CC0008000A8B34F49097801F03F0003F09EFD62
:101CD00004464FF08F41204603F0F8FD04464A4881
:101CE000008803F0ABFD0646214603F0EFFB0446F7
:101CF0004649204603F058FC0746454903F0E6FDF7
:101D000006464FF0804103F04FFC044600203D4959
:101D100008704049204603F0A5FD09D2204603F093
:101D2000A9FB06463C4A3D4B03F084FA00D2254607
:101D30002846BDE8F08110B53248007800F08000F8
:101D400000284FD101218807FFF741FCD0B12D4871
:101D5000007800F04000A8B12A48007800F03F0069
:101D60003F280AD12748007840F0800025490870B4
:101D70004FF6FF702449088004E022480078401C98
:101D80002049087002214807FFF721FC50B31D4885
:101D9000007800F0400088B11A48007840F08000D8
:101DA000184908704FF08040FFF7F2FB1649088091
:101DB00000214FF08040FFF7F3FA13E000201149B3
:101DC00008701149088000214FF08040FFF7CAFBDE
:101DD0000C48007840F040000A490870022148078A
:101DE000FFF7DEFA03214FF08040FFF701FC10BD42
:101DF0000010014000080140C80000208C01224270
:101E000000002242300000203200002000247449EB
:101E10000000AA43000020417B14AE47E17A843FD2
:101E200010B56FF0040000F01CFF2E4800682E492A
:101E3000B0FBF1F02D4908700846007800EB400136
:101E4000C1EBC0104FF6FF7101EAC00028490880BD
:101E500010BD0146254A12784A434FF0E0235A61EB
:101E600000229A611A46126942F001021A6100BF0B
:101E70004FF0E022106900F001021AB100F4803244
:101E8000002AF5D04FF0E022126922F001024FF053
:101E9000E0231A6100229A6170470146144A1288B1
:101EA0004A434FF0E0235A6100229A611A461269B0
:101EB00042F001021A6100BF4FF0E022106900F009
:101EC00001021AB100F48032002AF5D04FF0E0226E
:101ED000126922F001024FF0E0231A6100229A6198
:101EE000704700000000002000127A00340000203B
:101EF00036000020014600BF704700BF584A1288D4
:101F000002F04002002AF9D0C2B2554B1B1D1A80C4
:101F1000704710B586B00446012144F2040000F079
:101F2000E9FB4FF40070ADF8140003208DF81600A3
:101F300018208DF8170005A94A4800F01FF94FF442
:101F40008060ADF8140004208DF8170005A94548FD
:101F500000F014F925208DF8000003208DF8010011
:101F60008DF8020001208DF80300684600F02FFE76
:101F700001940020ADF80800ADF80A00ADF80C009F
:101F8000ADF810000C20ADF80E0001A9344800F0A7
:101F900058FC012240F22551314800F0EAFC0121B1
:101FA0002F4800F0DAFC06B010BD10B540F2255104
:101FB0002B4800F0C3FD002850D0294800F03EFD1A
:101FC000C4B2202C0ED1284800210160416001815B
:101FD0002648007826490870234826490A68026086
:101FE000097901712148008800F4004020BB1F4896
:101FF000008800F4804060B10A2C03D000201B4907
:1020000008802BE01948008840F4004017490880F8
:1020100024E00D2C11D11548008840F4804013496C
:1020200008800020144908701248114909780144B9
:102030001148D1F80110016010E00C480088C0F38D
:102040000D000C490C5409480088401C07490880C1
:1020500008460088C72801DD0020088010BD000068
:1020600000380140000801409A0100203C00002097
:102070003E000020D2000020A40100200948804733
:1020800009480047FEE7FEE7FEE7FEE7FEE7FEE75A
:10209000FEE7FEE7FEE7FEE704480549054A064B72
:1020A00070470000DB060008310100081002002024
:1020B00010080020100400201004002010B5044671
:1020C000CC48844208D10121042000F02DFB0021DE
:1020D000042000F029FB46E0C748844208D10121D2
:1020E000082000F021FB0021082000F01DFB3AE051
:1020F000C248844208D10121102000F015FB0021C4
:10210000102000F011FB2EE0BD48844208D10121CF
:10211000202000F009FB0021202000F005FB22E038
:10212000B848844208D10121402000F0FDFA002186
:10213000402000F0F9FA16E0B348844208D10121AA
:10214000802000F0F1FA0021802000F0EDFA0AE092
:10215000AE48844207D10121801500F0E5FA002144
:10216000A01500F0E1FA10BD10B50121084600F0FD
:10217000DBFA0021012000F0D7FA10BD2DE9F04173
:10218000024600250026002000230024002791F8A5
:1021900003C00CF00F0591F803C00CF0100CBCF15B
:1021A000000F03D091F802C04CEA050591F800C079
:1021B000BCF1000F31D0146800202BE04FF0010C6F
:1021C0000CFA00F3B1F800C00CEA03069E4220D1DD
:1021D00083004FF00F0C0CFA03F7BC4305FA03FC25
:1021E0004CEA040491F803C0BCF1280F06D14FF06B
:1021F000010C0CFA00FCC2F814C00AE091F803C00C
:10220000BCF1480F05D14FF0010C0CFA00FCC2F8EC
:1022100010C0401C0828D1D31460B1F800C0BCF134
:10222000FF0F34DD546800202EE000F1080C4FF061
:10223000010808FA0CF3B1F800C00CEA03069E424C
:1022400021D183004FF00F0C0CFA03F7BC4305FAC1
:1022500003FC4CEA040491F803C0BCF1280F05D13B
:1022600000F1080C08FA0CF8C2F8148091F803C0C9
:10227000BCF1480F07D100F1080C4FF0010808FA33
:102280000CF8C2F81080401C0828CED35460BDE87A
:10229000F0814FF6FF710180022181700421C1702D
:1022A00070470246002093680B400BB1012000E00C
:1022B000002070470146886880B2704702460020BF
:1022C000D3680B400BB1012000E0002070470146AD
:1022D000C86880B2704701617047416170470AB1B8
:1022E000016100E041617047C16070474FF4803286
:1022F0000A43826181618261826982697047024614
:102300000020434B18684FF68073184040EA0210D3
:1023100008433F4B186070473E49C8617047F0B5AD
:102320000A46002300240021002500F00046B6F1F3
:10233000004F02D1364EF16901E0354E7168C0F3AD
:10234000034583B200F44016B6F5401F08D121F0D2
:1023500070612F4E766826F070662D4F7E6012E019
:1023600000F48016B6F5801F06D1032606FA05F4A0
:10237000A14341F0706106E0460D360103FA06F60E
:10238000B14341F0706122B1460D360103FA06F601
:10239000314300F00046B6F1004F02D11C4EF1610E
:1023A00001E01B4E7160F0BD30B500228B071C0FA1
:1023B0000F2303FA04F2164B08338C1053F8243021
:1023C0009343134C08348D1044F8253023468C1069
:1023D00053F824308C07240F00FA04F423430C4CE8
:1023E00008348D1044F8253030BD0A49DC310860CE
:1023F0007047000000080140000C0140001001403F
:102400000014014000180140001C01400020014060
:102410000000014000002042DF48006840F0010059
:10242000DD49086008464068DC490840DA494860F0
:1024300008460068DA490840D7490860084600683D
:1024400020F4802008600846406820F4FE004860C0
:102450004FF41F0088607047CF49096821F480312C
:10246000CD4A11601146096821F480211160B0F550
:10247000803F03D0B0F5802F0ED106E0C649096831
:1024800041F48031C44A116007E0C349096841F44E
:10249000A021C14A116000E000BF00BF704710B525
:1024A00001460022002300204A11012A02D1BA4C21
:1024B000236806E0022A02D1B74C236A01E0B64C39
:1024C000636A01F01F02012494401C400CB10120FA
:1024D00000E0002010BD38B5002000900024002549
:1024E00000BF3120FFF7DBFF05460098401C00903D
:1024F0000098B0F5A06F01D0002DF2D03120FFF789
:10250000CEFF08B1012400E00024204638BD01467A
:102510000020A14A106820F0F80040EAC1001060D5
:102520007047A04908607047024600209A4B5868DF
:1025300020F47C1042EA01031843974B586070471F
:1025400098490866704701460020934A506820F079
:1025500003000843506070478F48406800F00C004B
:102560007047014600208C4A506820F0F000084374
:102570005060704701460020874A506820F4E060B0
:1025800008435060704701460020834A506820F499
:10259000605040EAC1005060704729B17E4A527ACB
:1025A00002437D4B5A7204E07B4A527A82437A4B53
:1025B0005A7270477B49D831086070470146002045
:1025C000754A506820F4404008435060704700212D
:1025D000714A20321170704A82F82010012802D00E
:1025E00004280AD104E001216B4A2032117005E071
:1025F0000521694A2032117000E000BF00BF70471A
:102600006949086070476449096A0143624A116276
:102610007047654944390860704730B50021002291
:10262000002400235C4D6D6805F00C0121B10429E4
:1026300005D0082923D105E05C4D056022E05B4D03
:1026400005601FE0544D6D6805F47012524D6D68C1
:1026500005F48034022505EB92421CB9544D5543D4
:1026600005600BE04C4D6D6805F400351DB1504D13
:102670005543056002E04D4D5543056002E04B4D6A
:10268000056000BF00BF444D6D6805F0F001090909
:10269000484D6B5C0568DD4045603F4D6D6805F455
:1026A000E061090A434D6B5C4568DD4085603A4D49
:1026B0006D6805F46051C90A3E4D6B5C4568DD40AC
:1026C000C560354D6D6805F44041890B3A4D6B5C32
:1026D000C568B5FBF3F5056130BD29B12E4A5269D5
:1026E00002432D4B5A6104E02B4A526982432A4B24
:1026F0005A61704729B1284A92690243264B9A6170
:1027000004E0254A92698243234B9A61704729B1BC
:10271000214AD2690243204BDA6104E01E4AD269A1
:1027200082431D4BDA61704729B11B4AD2680243CC
:10273000194BDA6004E0184AD2688243164BDA601B
:10274000704729B1144A12690243134B1A6104E01D
:10275000114A12698243104B1A617047124940397D
:10276000086070470F49C86470470B49C8717047CB
:102770000948406A40F08070074948627047014646
:102780000020054A92680A400AB1012000E00020BA
:102790007047014988727047001002400000FFF83E
:1027A000FFFFF6FE000042428004424200127A001F
:1027B00000093D003F0000204F00002010B50446F6
:1027C000FB48844209D101218803FFF7ADFF0021B6
:1027D0004FF48040FFF7A8FF32E0F648844209D169
:1027E00001214804FFF7ADFF00214FF40030FFF74F
:1027F000A8FF25E0F048844209D101218804FFF7B1
:10280000A0FF00214FF48020FFF79BFF18E0EB486A
:10281000844209D10121C804FFF793FF00214FF43E
:102820000020FFF78EFF0BE0E548844208D101212C
:102830000805FFF786FF00214FF48010FFF781FFA6
:1028400010BD2DE9F04786B005460E460024A2468D
:1028500000BFA1460027B08900B100BF2F462C8AD7
:102860004CF6FF700440F08804432C82AC894EF68D
:10287000F3100440B0883189084371890843044348
:10288000AC81AC8A4FF6FF400440B0890443AC826F
:1028900001A8FFF7C2FEC648874202D1DDF810A0AA
:1028A00001E0DDF80CA0A88900F4004040B10AEB7B
:1028B000CA0000EB0A1031684900B0FBF1F807E0EC
:1028C0000AEBCA0000EB0A1031688900B0FBF1F88E
:1028D0006420B8FBF0F004012009642101FB108999
:1028E000A88900F4004040B1322000EBC900B0FBE1
:1028F000F1F000F00700044308E0322000EB09107B
:102900006421B0FBF1F000F00F0004432C8106B00D
:10291000BDE8F0874FF41651016000218180C1802D
:1029200001810C21418100218181704710B502464F
:102930000020108A4FF2FF0318400B884C88234375
:102940008C882343CC8823431843108210BD002178
:10295000018041808180C180704721B1828942F429
:102960000052828104E082894DF6FF731A40828111
:102970007047F0B50346002400260025002040F6ED
:102980006A17B94200D100BF1846C1F3421401F0E2
:102990001F06012707FA06F5012C01D10C3004E0CF
:1029A000022C01D1103000E014301AB107682F4317
:1029B000076002E00768AF430760F0BD1AB1838A81
:1029C0000B43838202E0838A8B4383827047028AAF
:1029D0004FF6F0731A400282028A0A43028270475D
:1029E00082894FF2FF731A40828182890A43828171
:1029F000704721B1828942F00202828104E082891B
:102A00004FF6FD731A4082817047028A4FF6DF73DA
:102A10001A400282028A0A430282704721B1028A66
:102A200042F48042028204E0028A4BF6FF731A40AD
:102A300002827047C1F3080282807047014688888D
:102A4000C0F308007047818941F00101818170471E
:102A5000028BD2B20283028B42EA012202837047C8
:102A6000028B02F47F420283028B0A430283704787
:102A700021B1828A42F02002828204E0828A4FF6EB
:102A8000DF731A408282704721B1828A42F01002BD
:102A9000828204E0828A4FF6EF731A408282704786
:102AA00021B1828A42F00802828204E0828A4FF6D3
:102AB000F7731A408282704721B1828942F4004242
:102AC000828103E08289C2F30E028281704721B1C4
:102AD000828A42F40062828204E0828A4FF2FF73AB
:102AE0001A4082827047828A4FF6FB731A408282B4
:102AF000828A0A438282704721B1828A42F00202AE
:102B0000828204E0828A4FF6FD731A408282704707
:102B100002460020B1F5007F00D100BF13880B40B2
:102B20000BB1012000E00020704701F40072B2F503
:102B3000007F00D100BFCA430280704770B50246D3
:102B4000002400230025002040F66A16B14200D17F
:102B500000BFC1F3421501F01F03012606FA03F37B
:102B6000012D02D19689334006E0022D02D1168A4A
:102B7000334001E0968A33400C12012606FA04F431
:102B80001688344013B10CB1012000E0002070BD64
:102B900010B50022002340F66A14A14200D100BF04
:102BA0000A1201249440A3B2DC43048010BD00004B
:102BB000003801400044004000480040004C004004
:102BC0000050004031490143314A1160704770B5EF
:102BD000002100230F22C47804B32D4C246804F490
:102BE000E064C4F5E064210AC1F10403CA404478FA
:102BF00004FA03F18478144021430901254C067836
:102C0000A155047804F01F050124AC4005786D112E
:102C1000AD0005F1E025C5F8004109E0047804F0B5
:102C20001F050124AC401C4D0678761145F826405E
:102C300070BD1A4A0A400243154B1B1F1A607047A9
:102C400039B1134A121D12680243114B1B1D1A6041
:102C500006E00F4A121D126882430D4B1B1D1A60BD
:102C60007047042808D14FF0E021096941F00401C0
:102C70004FF0E022116107E04FF0E021096921F0F7
:102C800004014FF0E0221161704700000000FA05D6
:102C90000CED00E000E400E080E100E080FFFF1FB9
:102CA000704700000FB4044910B503AA029800F061
:102CB000EDFB10BC5DF814FB380000202DE9F0415D
:102CC0000646002410687529314615A510D0AFF3CB
:102CD0000080002802DA404212A507E031688A0726
:102CE00001D511A502E0490704D510A5012401E092
:102CF000AFF3008000210A2306F1240707E0B0FBB0
:102D0000F3F203FB1200303078541046491C0028BF
:102D1000F5D123462A463046BDE8F04100F039B9E6
:102D2000000000002D0000002B000000200000002B
:102D30002DE9F05F894604464FF0000ADFF824B120
:102D4000FB44C0F820A02046E168884700287DD0D9
:102D5000252806D0D4E901219047206A401C206232
:102D6000F1E700255F462046E168884720280646AF
:102D700007DB312E05D2B81910F8200C08B1054335
:102D8000F1E7A80701D525F00405C4F81CA0002729
:102D9000C4F818A02A2E09D0304601F0ECFE38B352
:102DA00004EB8708303EC8F8186019E059F8041B96
:102DB000204604EB87029161E1688847012F0646AF
:102DC00018D1E069002820DA25F020051DE0D8F8A8
:102DD000180000EB800006EB40003038C8F81800FF
:102DE0002046E1688847064601F0C5FE0028EED17E
:102DF000012F0AD02E2E08D12046E16888477F1C7B
:102E00000646022F45F02005C4DBA069002803DA3E
:102E1000404245F00105A061E80701D025F010050A
:102E2000A6B1A6F14100192802D8203645F4006564
:102E30004A463146204625604D46FDF7B3F960B15C
:102E4000012807D0ED1D25F0070000E007E000F1A4
:102E5000080978E705F1040975E730467AE7206A42
:102E6000BDE8F09F822F000010B5431C02E010F86F
:102E7000011B71B18107FAD14FF0013202C88C1ADF
:102E80008C4314EAC211F9D0C01A0A0603D0C01E3E
:102E900010BDC01A10BD0A0401D0801E10BD090269
:102EA000FCD0401E10BD032A40F2308010F0030C0D
:102EB00000F0158011F8013BBCF1020F624498BF8D
:102EC00011F801CB00F8013B38BF11F8013BA2F12A
:102ED000040298BF00F801CB38BF00F8013B11F0A5
:102EE000030300F03583083AC0F0088051F8043B32
:102EF000083A51F804CBA0E80810F5E7121D5CBFB2
:102F000051F8043B40F8043BAFF30080D20724BFE4
:102F100011F8013B11F801CB48BF11F8012B24BF78
:102F200000F8013B00F801CB48BF00F8012B7047C7
:102F30004FF000020429C0F0128010F0030C00F0E2
:102F40003B83CCF1040CBCF1020F18BF00F8012B3D
:102F5000A8BF20F8022BA1EB0C0100F02DBB5FEA0B
:102F6000C17C24BF00F8012B00F8012B48BF00F8FA
:102F7000012B7047704770477047704710B500F0DD
:102F800045FB006810BD10B5044600F03FFB04602F
:102F900010BD2DE9F0470D4699469246044600F1D2
:102FA00024080168880604D5E06921F01001216039
:102FB00000E00120A84201DD471B00E00027A169D5
:102FC0007A1902EB0900081AA0612078C00602D421
:102FD0002046AFF30080002608E0D4E901211AF86A
:102FE00006009047206A401C761C20624E45F4DBA8
:102FF0002078C0060AD52046AFF3008006E0D4E969
:10300000012130209047206A401C2062381EA7F121
:103010000107F4DC07E0D4E9012118F80500904726
:10302000206A401C2062281EA5F10105F3DC204621
:10303000AFF300802078000602D50220BDE8F087BB
:103040000120FBE770472DE9FF4F0C461E464FF06D
:10305000FF378BB0D2E90001DDF860800A908A4624
:10306000C1F30A5505B93D46002108464FF000005E
:10307000BAF1000F00F4400005DA00EB80004FF4D5
:10308000400101EA50004FEA9059B9F1010F00DD0B
:10309000B9460A9850EA4A000ED044F61050A5F2FC
:1030A000FF3545432F14B8F1000F1ED07542291E7D
:1030B0001EDDC9F100021CE0B8F1010F4FF0000065
:1030C00001D0302103E0F24305E02154401CB0421E
:1030D000FBDB30460022002121540B99C1F8088007
:1030E000C1E900200FB0BDE8F08FBD1B6D1CDEE70D
:1030F0004A4600DA694206A800F03AFB06AB93E8BC
:10310000070003AB83E8070050460A9901F0B1F8C5
:103110008DE80700A0F500501F3800900398002D9F
:1031200009DD42F21F014A46084403A9039068469C
:1031300001F03BFB08E0A0F500504A461F3803A908
:103140000390684601F059FB8DE807000004000C6D
:1031500003D04FF0FF30410800E01046B8F1000FF7
:1031600003D00022009215461EE0751E05D400F023
:1031700051FA303262556D1EF9D5B346012208432B
:1031800002D000227F1C04E02078302801D10022E8
:103190007F1E002A099786D01DE0112D07DA00F066
:1031A00039FA303262556D1C50EA0102F5D10843FC
:1031B00002D00098C8B10EE00021681E05E0235C33
:1031C000625C63542254401E491C8142F7DBAB46CB
:1031D000A81B401E0990002004F80B000B98099AC8
:1031E000C0F80880C0E9002B7CE711264FF00008EA
:1031F00059E72DE9F04F88460446D21D22F0070119
:1032000091B0D1E90001CDE90A0101F040FC02468C
:103210000B98C00F01D02D2007E02068810701D551
:103220002B2002E0202101EAC000032A099001D0EE
:10323000072A05DB03464146204600F039FA09E13A
:103240002078800601D5E06900E00620B8F1650F1E
:10325000814606D0B8F1660F18D0B8F1670F70D16B
:1032600031E00020B9F1110F009001DB112301E0E2
:1032700009F101030AAA01A90CA8FFF7E4FEDDE9A0
:103280000C70002609F10105834647E001204B46FA
:1032900000904FF000470AAA01A90CA8FFF7D3FE3F
:1032A000DDE90DB00C995D46002610B909F1010069
:1032B0000D18B9EB050003D4C0F1FF3609F1010583
:1032C000A5EB09002BE0B9F1010F01DA4FF001097C
:1032D0000020B9F1110F0090484601DD112300E0F4
:1032E00003460AAA01A90CA8FFF7ADFEDDE90C70A0
:1032F0004D4600268346207800070AD4AB4500DA05
:103300005D4601A8012D04DD411911F8011C302989
:1033100007D04F4502DA17F1040F04DA0120824684
:103320000FE06D1EEEE7002F02DCED1B3E4403E0D4
:10333000781CA84200DD7D1CB81B00F1010A4FF08B
:1033400000472078000703D4AA4501DB4FF0FF3A7D
:103350000021B7F1004F0DF143088DF8431022D042
:1033600002202B23002F01DA7F422D234FF00A0C7D
:10337000011EA0F1010000DC47B197FBFCF10CFB42
:1033800011720F46303208F8012DF1E7A8F1010063
:1033900003702188090501D5452100E06521A0F1D0
:1033A000010800F8011C09980FA9A1EB0807FF1DEF
:1033B00000B10120411901EBEA70A1693844081AF3
:1033C000401EA0612078C00602D42046AFF30080E2
:1033D000099828B1D4E901219047206A401C206255
:1033E0002078C00622D52046AFF300801EE0002ED4
:1033F00004DBB34502DD01A8805D00E03020D4E9A4
:1034000001219047206A401C2062761CAAF101002D
:103410005FEA000A0AD100F0F5F8C0680168405C74
:10342000D4E901219047206A401C2062281EA5F1A2
:103430000105DCDC07E0D4E9012118F8010B904715
:10344000206A401C2062381EA7F10107F3DC2046E9
:10345000AFF30080022011B045E6000001694A1C6C
:1034600002610878704700B58FB0CDE901310021C5
:10347000059105497944CDE9031011466846FFF7E7
:1034800057FC0FB000BD0000E5FFFFFF074B70B514
:103490000D467B44FFF7E7FF0446284600F0D4F9C9
:1034A00010B14FF0FF3070BD204670BD65EAFFFFE0
:1034B0000FB4002300B589B00CA900910B99CB6023
:1034C000204B7B440693204B7B44079304236FF0EF
:1034D0000042CDE901321D4A7A446B460892024609
:1034E000002002F0D2FB09B05DF814FB70B506466F
:1034F0004FF0FF3015460C46324686B00091CDE9BC
:10350000010169460020049004A8FFF7D1FF03469B
:103510000498211825B108B10A4600E022462A6025
:1035200000280DD0002B02DD0098884208D03246DA
:10353000081B69460094CDE9010404A8FFF7B8FF11
:1035400006B070BD6B02000083020000C3010000E2
:1035500010B5203AC0F00B80B1E81850203AA0E82E
:103560001850B1E81850A0E81850BFF4F5AF5FEA62
:10357000027C24BFB1E81850A0E8185044BF18C915
:1035800018C0BDE810405FEA827C24BF51F8043BBC
:1035900040F8043B08BF7047D20728BF31F8023B10
:1035A00048BF11F8012B28BF20F8023B48BF00F8A4
:1035B000012B70474FF0000200B513469446964623
:1035C000203922BFA0E80C50A0E80C50B1F1200136
:1035D000BFF4F7AF090728BFA0E80C5048BF0CC0E4
:1035E0005DF804EB890028BF40F8042B08BF704742
:1035F00048BF20F8022B11F0804F18BF00F8012BB4
:103600007047000000487047D00100200048704714
:10361000B001002030B5B0F10A024FEA900E71F10E
:1036200000034EEA817EB0EB0E0061EB91014FEAA0
:10363000101E4EEA017E10EB0E0041EB11114FEA15
:10364000102E4EEA016E10EB0E0041EB11214FEAF5
:10365000104E4EEA014E10EB0E0041EB11414018A6
:1036600041F100014FEAD00040EA41704FEAD10138
:1036700010EB80054FEA810444EA907444EB0104A6
:103680006D1944EB0404521BA3414FF0000348BFE3
:103690000A3200D530BD401C41F1000130BD10B5EB
:1036A000044600F0FFF80068005D00F0010010BD66
:1036B0002DE9F0411F46044603260168072A01F45C
:1036C000006004DB08B116A505E016A503E008B10B
:1036D00015A500E015A521F010002060A069C01E0E
:1036E000A0610FB1401EA0612046AFF300804FB132
:1036F000D4E9012138469047206A401C2062C01C52
:10370000206206E0206AFAE7D4E9012115F8010BEE
:103710009047761EF8D22046AFF30080BDE8F081D6
:103720004E414E006E616E00494E4600696E660065
:10373000426842B1016811F8013B23B1521EC0E951
:103740000012184670470121C160881E7047426808
:103750005AB1C368016843B983688B4205D0491EDA
:10376000521CC0E90012002070474FF0FF30704734
:103770002DE9F047814616468AB0324878440DC894
:103780008DE80D002F487844801C03AC0DC884E8F8
:103790000D0041F69B303722014491FBF2F0A0F17D
:1037A000800502FB10141B3C02D56442012000E09E
:1037B0000020DFF890A080460027FA44AAF1BA0A58
:1037C0000DE0E00709D03246684607EB47010AEBF7
:1037D000810101F012F88DE8070064107F1C002CB5
:1037E000EFD1184F7F44A83F18E0E80714D007EB4B
:1037F00004100DF1180A90E80E008AE80E00C06867
:10380000F04201D198190890324606A903A800F0A9
:10381000F4FF03AB83E807006D10641C002DE4D1B6
:1038200032466946B8F1000F03A802D000F0BDFF90
:1038300001E000F0E2FFC9E90001C9F808200AB080
:10384000BDE8F087D4250000007B00F080007047C1
:1038500000487047B00100207546FFF7F9FFAE46FB
:1038600005006946534620F00700854618B020B58C
:10387000FEF712FCBDE820404FF000064FF00007B5
:103880004FF000084FF0000B21F00701AC46ACE808
:10389000C009ACE8C009ACE8C009ACE8C0098D4675
:1038A0007047000010B5FFF7ADFE001D10BD00BF52
:1038B000051400002DE9FF4F064689B00878FF285F
:1038C00006D0491C2D2805D000244FF0000908E03F
:1038D00000200CE00124F8E709EB8903491C00EB08
:1038E00043090878FF28F7D114B1C9F100008146D7
:1038F000107800252C46AA4629462D2801D02B28D1
:1039000004D1521C2D2813D0002082468B461078FB
:10391000FF280FD04FF0000C0A21521CA5FB0178A4
:1039200004FB018105FB0C11C5194BEB0104EEE70B
:103930000120EAE7002108464FF00000BAF1000F2D
:1039400002D000EB80004008C0F38158B8F1010FAD
:1039500001DD4FF0FF380C9809EB000755EA040031
:1039600009D04FF0020917F5FA7F0BDA4FEACA7057
:10397000C6E900B012E04FEACA70C6E900B00DB067
:10398000BDE8F08FB7F5FA7F0DDDF0487844D0E957
:103990000010C6E9001040EACA707060FFF736FEFA
:1039A000C0F80090EBE7391E02DAC8F1000200E02F
:1039B000424600DA794206A8FFF7DAFE06AB93E842
:1039C000070003AB83E8070044F23E005BEA040112
:1039D0000090584604D144F21E012C465D460091E9
:1039E000210C0904014306D10099240444EA15443A
:1039F0002D041039009104F07F41014306D1009954
:103A0000240244EA15642D020839009104F0704143
:103A1000014306D10099240144EA15742D01091FC0
:103A2000009104F04041014306D10099A40044EA0A
:103A30009574AD00891E009104F00041084304D143
:103A400000986D196441401E009042466846002F60
:103A5000CDE9014503A902DD00F0E3FE01E000F03D
:103A6000B8FEBAF1000F04460D4601D084F00044C0
:103A700040F2FF7724F00040284303D0C4F30A50FB
:103A8000B84212D1FFF7C2FDC0F80090C4F30A504B
:103A9000B8420AD1AE487844D0E90010C6E9001017
:103AA00004F000410843706069E7C6E9005466E726
:103AB0002DE9FF4F1F464FF0000A4FF0FF384546F3
:103AC00091B0D7E90146CDF83CA0FFF79BFDC06857
:103AD0000168405C1090B96912986D1C8847396A7A
:103AE000814688470028F6D1B9F1FF3F0AD0002E61
:103AF00024F4D06411DDB9F12B0F08D0B9F12D0FEA
:103B00000BD102E0404615B03AE744F48064B9694D
:103B100012986D1C8847761E8146600504A901D560
:103B20002D2000E02B20002E01F1010B0DF13008BB
:103B30008DF810003FDDB9F1690F08D0B9F1490FD8
:103B400005D0B9F16E0F02D0B9F14E0F1CD13B4632
:103B500001A8009580E85002DDE912126FF0020022
:103B600002F097F8C11CCED10EE0B96912986D1C15
:103B7000884781461398761E44F4007405600F98B8
:103B8000401C002E0F9016DDB9F1300FEDD0B9F1C9
:103B9000780F02D0B9F1580F0DD10F9801280AD132
:103BA0003B46CDE90054DDE91212001F029602F0F7
:103BB0006EF8C11CA7D1109989453ED144F080040C
:103BC00006E01399681CAAF1010A44F40074086025
:103BD000B9696D1C1298761E884730288146F0D04E
:103BE0002BE01099894505D1200603D4761E44F0B8
:103BF000800418E0484600F0BEFF08B3761E0DF1C1
:103C000023018B4544F4007408D2A9F130000BF86D
:103C1000010B200607D5AAF1010003E0200602D41B
:103C20000AF101008246A00502D51399681C0860BC
:103C3000B96912986D1C88478146002ED1DC53E08B
:103C4000002E51DDB9F1650F02D0B9F1450F4BD10E
:103C5000A00549D5B9696D1C1298761E24F44074EC
:103C60008847002E81460CDD2B2804D0B9F12D0F9A
:103C700007D144F48074B96912986D1C8847761E88
:103C80008146E00501D52D2100E02B2108F8011B1C
:103C9000CDF8008021E0761E0DF13901884544F40D
:103CA00000740CD2A9F1300010F0FF0088F8000079
:103CB00002D10099884509D908F1010806E0E0051C
:103CC00001D5244801E042F20F708246B96912988A
:103CD0006D1C8847814613980560002E04DD484618
:103CE00000F049FF0028D6D1F96912988847FF20D3
:103CF00053468BF8000088F8000000200A900B90D3
:103D000004AA0CA90AA8FFF7D5FDA00502D46FF0FC
:103D10000100F8E614F0240F0AD0E00714D1386847
:103D2000DDE90A12031D3B600068C0E900120BE0E8
:103D30000AA9684600F0C8FEE00705D13868009A75
:103D4000011D3960006802602846DCE6FC230000A3
:103D5000F2220000F1D8FFFF0446AFF300802046B6
:103D6000FCF743FA4FF0013C50F8042B51F8043BA8
:103D70009A4221D1A2EB0C03934313EACC1317D13F
:103D800050F8042B51F8043B9A4215D1A2EB0C03D6
:103D9000934313EACC130BD150F8042B51F8043B96
:103DA0009A4209D1A2EB0C03934313EACC13DBD064
:103DB0004FF00000704700BFD01A01BAB1FA81F18C
:103DC00001F0180122FA01F0CB40C1F12001DBB271
:103DD000C0B2C01A2CFA01F3D11A914311EAC311EF
:103DE000E6D170472DE9FF4F1F464FF03C0987B0E1
:103DF0004FF00042DDE9141001F10108DDF858A090
:103E000002EA405003900020049083460546044691
:103E10000590B969461E08988847AAF1010A0290E0
:103E2000BAF1000F37DD02982E2815D0102100F0CE
:103E300012FA00282ADB4FF0010B0499014316D037
:103E4000B9F1000F0BDB4A46C11700F0F1F9054349
:103E50000C43A9F1040905E00120059007E008B131
:103E600045F0010501200490059800B9361DB96997
:103E7000089808F101088847BBF1000FAAF1010A70
:103E80000290CDD00999C1F80080C9E70298702846
:103E900008D0502806D0F96908988847BBF1000F70
:103EA00014D04FE0002002900120BBF1000F0490DD
:103EB00009D0B969089808F101088847AAF10109F1
:103EC000B9F1000F07DCF969089888476FF0010025
:103ED0000BB0BDE8F08F2B2804D02D280CD14FF06B
:103EE000FF300490B969089808F101088847A9F1E2
:103EF0000109B9F1000FE6DD411CE4D00A2100F010
:103F0000AAF90028DFDB029908F1010801EB810121
:103F100000EB41000290B969089888470A2100F037
:103F20009AF9099AA9F10109B9F1000FC2F80080C4
:103F300001DD0028E7DAF9690898884704990298B2
:103F400000FB016655EA040004D004F0404109007A
:103F500002D006E0039898E0A40044EA9574AD000E
:103F6000B61E04F00041080002D16D196441761EAE
:103F7000159810F0240F03D04FF00B095C4803E0B4
:103F80004FF028096FF07D008246564507DAAAEB0C
:103F900006018944B9F1410F01DD4FF041090120CB
:103FA0000021A9F1010200F043F9024628400B4626
:103FB0002140084301D0012100E00021501E029160
:103FC00043F1FF3128402140084301D0012000E0A7
:103FD00000200299834651EA0B014FD00021084688
:103FE0004FF00000039900F4400039B100EB80006D
:103FF0004FF4400100EBD07001EA60008015012809
:1040000002DD4FF0FF3000E013D0401C36D00298A4
:1040100060B3BBF1000F0CD14A460120002100F033
:1040200007F928402140084301D0012000E000208A
:10403000E0B101204A46002100F0FAF80346401999
:104040000A4661412D1A8C4111D3B9F1400F09DDA7
:10405000159810F0240F02D0AAF1340603E0AAF15B
:10406000170600E0761C00254FF0004406E05B1EBA
:1040700042F1FF3220EA030521EA0204CAF10100FD
:10408000B04206DA1B4903980843019000200090D3
:104090000EE0039AC4F3D321E80A0A43164940EA22
:1040A00044500A433146CDE90002684600F058FD0D
:1040B000159810F0240F0BD01598C00715D138684B
:1040C000DDE90012031D3B600068C0E900120CE04E
:1040D00002A8694600F0F8FC1598C00705D13868B9
:1040E000029A011D3960006802604046F0E6000057
:1040F00002FCFFFF0000F07F0000F03F2DE9FF4FC2
:1041000092461D4685B04FF00041DDE9124BDDE9D6
:1041100014727F1E01EA4B50414940F0FF4940EACA
:104120000108002122F020004928049102D04E28E5
:1041300028D04CE03BA0012607C88DE80700A969FC
:104140000698641C88477F1E014606D41DF80600A9
:1041500018B121F0200181420BD0E9690698884707
:10416000032E34D0082E32D06FF0010009B0BDE824
:10417000F08F761C032E01D0082EE0D1601CCAF807
:104180000000DCE7A9690698641C88477F1E2AD4D2
:1041900020F02000412826D1A9690698641C884790
:1041A0007F1E20D420F020004E281CD1A96906983B
:1041B000641C88477F1E48F4002849F48009CAF827
:1041C000004001D4282806D0E969069888475FEAAC
:1041D000CB7012D022E0A9690698641C88477F1E24
:1041E00001D4002803DAE96906988847BCE7292842
:1041F000F1D1641CCAF80040E9E71BF0240F07D096
:1042000028680499031D2B600068C0E9001805E0C8
:104210002868021D2A600068C0F800902046A5E7C3
:104220000000F07F494E46494E49545900000000B5
:10423000B2F120030AD5C2F1200301FA02F120FAFB
:1042400003F300FA02F041EA0301704700FA03F1B8
:104250004FF0000070473A2800D2303820F020029A
:10426000412A01D3A2F13700884201D34FF0FF3039
:1042700070475FEA400C08BF91F0000F4FEA8C23B3
:104280004FEAC12243EA51514FEA1C5018BF00F5D2
:10429000F0404FEA300018BF41F000415FEA6C5C2B
:1042A00000F02980BCF1FF3F08BF40F0804070471C
:1042B000130C06BF12044FF0100C4FF0000C130E3D
:1042C00004BF12020CF1080C130F04BF12010CF111
:1042D000040C930F04BF92000CF1020CD30F04BF27
:1042E00052000CF1010C11464FF00002A0F11F002A
:1042F000A0EB0C00704711F0004F08BF704731F081
:1043000000413FF4D5AF0B0C06BF09044FF0100C71
:104310004FF0000C0B0E04BF09020CF1080C0B0F40
:1043200004BF09010CF1040C8B0F04BF89000CF1D0
:10433000020CCB0F04BF49000CF1010CCCF120039F
:10434000A0EB0C0022FA03F302FA0CF241EA03019B
:1043500000F10100704720F07F4C80EA030023F059
:104360007F47ACEB070303F57C5300F0004003F1FB
:10437000FF032DE980494FEA154B09B44FEA144376
:1043800025EA0B4E24EA03480FF2042606EB132716
:1043900049083E785FEA320203FB0667C7F500076B
:1043A00007FB06F64FEA54374FEAD64606F10206F7
:1043B00007FB066CCCF1005C4FEA1C472CEA074C6B
:1043C00007FB06F40CFB06F504EB15464FEA9616C0
:1043D00034BF00204FF000404FEAD13706FB07FC06
:1043E0004FEA1C4C0CFB0BF7D21B03FB0CF761EBE9
:1043F00007010CFB0EF7B0EB074072EB17420CFB0A
:1044000008F734BFA2EB0742B2EB074261EB17415A
:104410004FEA0C444FEA910706FB07FC4FEA1C4C9D
:104420000CFB0BF7B0EBC74072EB573203FB0CF7FA
:1044300034BFA2EBC742B2EBC74261EB57310CFB72
:104440000EF7B0EBC70072EB57720CFB08F734BFE6
:10445000A2EBC702B2EBC70261EB5771039F4FEAB1
:10446000816141EA921104EBCC044FEAD1374FEA63
:10447000826206FB07FC42EA90124FEA80604FEA34
:104480001C4C0CFB0BF7D21B03FB0CF761EB070179
:104490000CFB0EF7B0EB074072EB17420CFB08F772
:1044A00034BFA2EB0742B2EB074261EB17414FEA80
:1044B0008C554FEA910704EB9C2406FB07FC4FEA5E
:1044C0001C4C0CFB0BF7B0EBC74072EB573203FBF5
:1044D0000CF734BFA2EBC742B2EBC74261EB5731D6
:1044E0000CFB0EF7B0EBC70072EB57720CFB08F732
:1044F00034BFA2EBC702B2EBC70261EB577115EBF9
:104500004C254FEA816141EA92114FEA82624FEAFB
:10451000D13742EA901206FB07FC44F100044FEA4F
:1045200080604FEA1C4C0CFB0BF7D21B03FB0CF713
:1045300061EB07010CFB0EF7B0EB074072EB174283
:104540000CFB08F734BFA2EB0742B2EB074261EB6A
:10455000174115EB1C154FEA813141EA92414FEAB0
:10456000823242EA90424FEA80304FEA0C7644F1C0
:10457000000448EA03434EEA0B484FF0000EB2EB4A
:10458000080C71EB030724BF624639464EEB0E0E52
:104590004FF0000B0018524149414BEB0B0BB2EBB3
:1045A000080C71EB03077BF1000B24BF6246394610
:1045B0004EEB0E0E4FF0000B0018524149414BEBF1
:1045C0000B0BB2EB080C71EB03077BF1000B24BF64
:1045D000624639464EEB0E0E51EA020718BF46F00E
:1045E000010616EB0E7655F1000254F1000103D5D9
:1045F000BDE88901BDE80088BDE88901B619BDE8BC
:104600000048524141EB0101A3F101037047808052
:104610007F7E7D7C7B7A797877767675747372711C
:1046200071706F6E6E6D6C6C6B6A6A6968686766D4
:1046300066656464636362616160605F5F5E5E5D66
:104640005D5C5C5B5B5A5A595958585757565655DA
:1046500055555454535352525251515050504F4F3C
:104660004F4E4E4D4D4D4C4C4C4B4B4B4A4A4A498C
:1046700049494848484747474746464645454544CF
:104680004444444343434342424242414141000087
:1046900046EA0646A3F570534FEA164646EA4256E6
:1046A0004FEAD22242EA415210B54FEAD121A3F19A
:1046B000010300F017F820F0004000F1010C00F0B9
:1046C000004701EB00501146BCF5006F40EA0700BF
:1046D00000D210BD02484FF0000140EA070010BDB3
:1046E0000000F07F002B26D4770021D01CB54FEAC4
:1046F000370703B44FF010004FF010014FF00000E7
:104700000FBC0BF1010BBDE81040BBF1010F08BF5E
:104710005FEA170722BF12F1010211F101014FF008
:10472000004143F1000300F0004043EA00007047FD
:10473000F9D35708DAE746EA064613F1400F4FEA85
:1047400016461FDD13F1200FDFBF16430A46002176
:1047500020335B42C8D0C3F1200746EA064602FA7E
:1047600007F74FEA164646EA0706C3F1200722FA82
:1047700003F201FA07F721FA03F14FF0000342EACE
:104780000702B1E746EA020646EA06464FEA16463F
:1047900046EA0106BCBF46EA0646360C4FF0000367
:1047A0004FF000024FF000019EE72DE9C04893460C
:1047B00030B491E8380007C831EA400C48BF34EA09
:1047C000430C03D5FFF7C7FDFFF78CFFF0BCBDE836
:1047D00000882DE9C048934630B491E8380007C8F6
:1047E00031EA400C48BF34EA430C03D5FFF7B3FD70
:1047F000FFF74EFFF0BCBDE800882DE9C0489346A6
:1048000030B491E8380007C810F0804F08BF13F0AB
:10481000804F03D100F019F8FFF764FFF0BCBDE84A
:1048200000882DE9C048934630B491E8380007C8A5
:1048300010F0804F08BF13F0804F03D100F005F84F
:10484000FFF726FFF0BCBDE8008820F07F4780EA34
:10485000030023F07F4C07EB0C03A3F57C5300F01F
:104860000040A3F1FE0392F0000F00F0B38095F03A
:10487000000F00F077802DE901494FEA11404FEA1F
:10488000144621EA004800FB06FC24EA064708FB20
:1048900006F607FB08F800FB07F718EB06484CEB99
:1048A000164C4FEA124B18EB07484FEA15464CEBF3
:1048B000174022EA0B4E0BFB06FC25EA06470EFBCF
:1048C00006F607FB0EFE0BFB07F71EEB064E4CEB46
:1048D000164C4FF000061EEB074E4CEB174B18EB37
:1048E0000B0840F1000018EB0E0B58EB000840F1EC
:1048F00000008F1A4FF000013CBFC943661B14BF74
:10490000B5EB040C00213CBFC943F61B4FEA17442A
:104910004EEA8E0E27EA04454FEA1C4704FB076265
:104920002CEA074C05FB07F70CFB05F604FB0CFC17
:1049300016EB074642EB174216EB0C4642EB1C42C5
:104940001BEB060658EB0202414146EA9E0601D5E2
:10495000BDE80189B619524141EB0101A3F1010300
:10496000BDE801894FEA14454FEA114724EA05469C
:1049700021EA074C05FB07F406FB07F70CFB06F1E1
:1049800005FB0CFC11EB074144EB17444FEA1247BF
:1049900011EB0C4144EB1C4422EA074C05FB07F2E7
:1049A00006FB07F70CFB06F605FB0CFC16EB0746AF
:1049B00042EB174216EB0C4642EB1C456A1854F1C9
:1049C000000148BF7047B619524141EB0101A3F104
:1049D0000103704795F0000F37D04FEA11424FEABC
:1049E000144721EA024624EA074C02FB07F106FBC2
:1049F00007F70CFB06F402FB0CFC14EB074441EB3D
:104A000017414FEA154714EB0C4441EB1C4125EAD2
:104A1000074C02FB07F506FB07F70CFB06F602FB4B
:104A20000CFC16EB074645EB174516EB0C4645EB21
:104A30001C42121951F1000148BF7047B61952418A
:104A400041EB0101A3F1010370474FEA14454FEA1E
:104A5000114724EA054621EA074C05FB07F106FB4E
:104A600007F70CFB06F24FF0000605FB0CFC12EBFF
:104A7000074241EB174112EB0C4251EB1C4148BF7E
:104A80007047921841EB0101A3F1010370474900FF
:104A900050EAC12018BF04204A0D18BF40F00100A1
:104AA00040F2FF72B2EB515F08BF40F002000128F4
:104AB00008BF052070470000024A0020110701F0DE
:104AC000B6B8000001FDFFFF10B50446D1E90001B2
:104AD00000F002F8206010BD38B504460D466A4665
:104AE00000F066F800987E30009000281FDC00225D
:104AF00013462046294600F0E1F918D02046294601
:104B000000F0EEF80446002140F608004FF00000E7
:104B100040F60801014040F608004FF0000034F074
:104B2000004004BF0220FEF72EFA204638BD009850
:104B3000FF280DDB0220FEF726FA0022134620464E
:104B4000294600F077FB8CBF04484FF0FF4038BD8A
:104B500020462946BDE8384000F0C2B8000080FF7A
:104B600010B504460A46D4E90003194600F04CF893
:104B7000C4E9000110BD30380A2801D20120704775
:104B80000020704730B583B004460020CDE9000016
:104B9000FEF7F4F90546002221466846FEF7A6FC1A
:104BA0002846FEF7F0F9DDE9000103B030BD000052
:104BB00010B5144600222260114A21F000439342AE
:104BC000A8BF10BD53EA000208BF10BDB3F5801F97
:104BD000A8BF226807DA362201F029F86FF0350203
:104BE00021F000432260DFF81CC06FF31E510CEB74
:104BF00023531A4441F0FF5141F00051226010BD8F
:104C00000000F07F02FCFFFF2DE9F04106460C4654
:104C100040F2FF75174635EA145030D00022134693
:104C2000304600F04BF92AD03A463046214600F093
:104C3000FEFF06460C4635EA145010D000221346FB
:104C4000304600F03BF91AD10220FEF79CF9FFF73D
:104C500033FF0A46214662F31E01BDE8F0810220BF
:104C6000FEF791F940F2013200204FF0E04100F0F0
:104C7000DEFF0A46214662F31E01BDE8F0813046A0
:104C80002146BDE8F081000010B500290AD008785F
:104C9000002807D005487844FFF764F8002801D0C1
:104CA000002010BD0248784410BD0000FE10000036
:104CB000F610000010B500290AD00878002807D0A7
:104CC00005487844FFF74EF8002801D0002010BDB9
:104CD0000248784410BD0000EE100000E61000000D
:104CE00021F00042A2F16052B2F5801F01F00043B2
:104CF00028BFD2F17F6C0BD95FEA001C43EAC202E5
:104D000042EB507018BF704728BF20F00100704779
:104D1000B2F5801FBCBF184670474FEA410C1CF526
:104D2000001F02D2084600F098BE70B500F02EFABF
:104D300000000089FFF7F6BF4FF00040A0F58000AB
:104D40007047000010B591EA030F48BF83F000439D
:104D500000F1AE82841A71EB030C05D2121943EBF9
:104D60000C03001B61EB0C01DFF824E14FEA115446
:104D7000A4EB135C1EEA430F18BF9EEA445F73D096
:104D800023EA0E03DCF1200E21EA045143F48013E0
:104D900032D322FA0CFE10EB0E0023FA0CFE41EB8C
:104DA0000E01CCF1200E03FA0EFE10EB0E0051F1B5
:104DB0000001B1F5801FCCF1200E32D201EB04517D
:104DC00012FA0EF2BDE8104058BF7047401C38BFC1
:104DD0005FEA420218BF7047002814BF20F00100AC
:104DE00041F100014FEA410313F5001F38BF70473E
:104DF000A1F1C04100F018BA012A43EB0302ACF163
:104E0000200CDCF11F0E32BF4FF0000E23FA0CF322
:104E100010EB030041EB0451B4EB115FD0D0A1EBD8
:104E2000045101F5801149085FEA300001EB04519B
:104E30000ED350F1000038BF12FA0EFE08D1BDE8C3
:104E40001040C9E7401C38BF5FEA4202CAD1C3E73D
:104E5000BDE810404FEA410313F5001F38BF70470B
:104E6000A1F1C04100F0E0B99EEA445F08D011EA28
:104E70005E0FBDE8104004BF01F000410020704704
:104E8000BDE8104070B500F081F900BF64FBBE3E84
:104E90000000E0FF02494FF0000000F096BE00BFA6
:104EA0000000F87F491058BFC1F140415B1058BF66
:104EB000C3F140438B42EFF30080704751EA030C8B
:104EC00017D41CF5801F58BFBCF5801F00F1068069
:104ED000994218BF704708BF9042704707D711F535
:104EE000801F58BF13F5801F19D49942704789421B
:104EF00070471CF5801F08D5BCF5801FF7D58B4285
:104F000018BF704708BF824270474FF4001C1CEB6B
:104F1000410F38BF1CEB430F01D28B42704770B575
:104F200000F034F9922449004FF000514FF08053C3
:104F3000FFF7B8BF4FEA41034FEA5353A3F580632D
:104F4000D3F11E03C8BFD3F1210C0CDD4FF000429A
:104F500042EAC12242EA505232FA03FC8CEAE17C76
:104F6000ACEBE1707047102BC4BF0020704703F515
:104F7000787CBCF1FF3F04D06FF0004282EA210050
:104F8000704770B500F002F9499224800020704704
:104F9000F2E710F0004248BF4042B0FA80F310FA46
:104FA00003F10AD0C3F11D0303F580634FEA4150BA
:104FB00002EB035202EBD12170474FF00000704723
:104FC00051EA030C17D41CF5801F58BFBCF5801F95
:104FD00000F10680994218BF704708BF90427047A1
:104FE00007D711F5801F58BF13F5801F19D49942B8
:104FF0007047894270471CF5801F08D5BCF5801F9B
:10500000F7D58B4218BF704708BF824270474FF4F4
:10501000001C1CEB410F38BF1CEB430F01D28B422D
:10502000704770B500F0B2F8922449004FF000517B
:105030004FF08053FFF736BFDFF848C170B51CEA68
:10504000111E1EBF1CEA13159EEA0C0F95EA0C0FE9
:1050500000F06F8081EA030423EA4C134EEAD47E09
:1050600021EA4C1141F4801143F48013AE44A1FBBA
:10507000024CA0FB0365AEF17F7E361955EB0C05A3
:10508000A1FB034C4CF10003A0FB021C16EB0C0629
:10509000654153F10003094218BF46F0010613F4BD
:1050A000007F0BD14FEA03314FEA0530340341EA68
:1050B000155140EA16506FF003020AE04FEAC3218F
:1050C0004FEAC520F40241EA555140EA56506FF0CC
:1050D000020202EB2E4201EB025585EACE710AD0A4
:1050E0005FEA440C18BF24F0004450F1000041F185
:1050F000000120EAD47040F2FE7C624500D270BD0F
:10510000A84214BF4FF080444FF04044002E08BF27
:105110000024BEF1806FA8BFA1F1C041BDE870407E
:1051200080F282804FF0000001F1C04101F00041A7
:1051300070479EEA0C0F0CEA131518BF95EA0C0F86
:1051400006D04FF0000081EA030E0EF0004170BD62
:1051500000F01CF88900013E00F007B800F009B823
:105160004FEA430C5FEA5C5C08D081EA030100F07F
:105170005BB84FEA410C5FEA5C5CF6D14FF000008F
:10518000014970470000FF070000F87F0EF1020E92
:105190002EF0030E5EF8046B364205D4012A43EB71
:1051A000030515F5001F12D8012841EB010C1CF571
:1051B000001F0CD80ED14FEAD17C15F5001F0CEB67
:1051C0004C0C0CF1020C08BF4CEBD37C04E04FF00C
:1051D000080C01E04FEAD37C0CEB4C0526FA05F6EF
:1051E00006F00706B6F1040C06D20EEB860CBDE8FD
:1051F00070404CF0010C6047DFE80CF0090B020234
:105200004FF000414FF00000A1F5002170BD19469C
:105210001046012851EB010418BFD4F5001484BFD7
:10522000002001F0004170BD0808A0F500114FEA10
:105230003101704753EA010C17D41CF5801F58BF89
:10524000BCF5801F00F106808B4218BF704708BF75
:105250008242704707D713F5801F58BF11F5801F92
:1052600019D48B4270479B4270471CF5801F08D5AC
:10527000BCF5801FF7D5994218BF704708BF904210
:1052800070474FF4001C1CEB430F38BF1CEB410F61
:1052900001D2994270470FB40CBC03BCFFF7C1BEEA
:1052A00010B591EA030F48BF83F000433FF552ADBC
:1052B000841A71EB030C07D212198CF0004C43EBEB
:1052C0000C03001B61EB0C01DFF8A4E14FEA115461
:1052D000A4EB135C1EEA430F18BF9EEA445F00F084
:1052E000B08023EA6E03524221EA0451C3EB6E03FD
:1052F00038BF5B1EDCF1200E25D322FA0CFE10EB2A
:105300000E0043FA0CFE41EB0E01CCF1200E03FA25
:105310000EFE10EB0E0051F10001CCF1200E29D44D
:1053200012FA0EF201EB0451BDE8104058BF70476D
:10533000401C1CBFB2F1004F704700280CBF491C35
:1053400020F00100704712EB020E43EB030218BF7E
:105350004FF0010E4EEA4202ACF1200CDCF11E0EC1
:1053600054D943FA0CFE10EB0E0051F1FF31CCF191
:105370001E0ED5D50EF1010E12FA0EFE404141EB84
:10538000010101EB445C5FEA5C5C10D910EBDE705C
:1053900001EB045138BFBEF1004FBDE8104018BF0B
:1053A000704700280CBF491C20F00100704730D224
:1053B0004FEAD42C11F5001124F400641BD0B1FA8B
:1053C00081F20B3AA41AA41ED2F12003914030FAC4
:1053D00003F31943904001EBCC71002C01EB045115
:1053E000BDE81040A8BF704701F1C0414FF0000078
:1053F00001F000417047B0FA80F310FA03F100D1D8
:1054000010BDE41A173C4805C90AE4E701EB045152
:1054100010BD491001EB0451BDE810404FEA3000C7
:1054200002E04FF0000170474A0008BF0042F8D088
:10543000B2F5001F28BF704701F000414FF0000097
:1054400070479EEA445F07D011EA5E0FBDE8104046
:1054500004BF002100207047BDE8104070B5FFF781
:1054600095FE00BF40DFF63E83F0004110467047D6
:105470000000E0FF43004FEAD30C4FEA3C0C4340EE
:105480001FBF40070CF1605113F0FE4F70471CF036
:10549000006F03D100200CF0004170470CF0004376
:1054A00043EA507010B540EACC0000F090FA00BF1B
:1054B000000000924FEA0001FFF7B6BE4FF0004136
:1054C0004FF00000A1F500217047000090EA010FA5
:1054D00048BF81F0004100F10883421A3CBF801AA6
:1054E00089184FEAD0524FF07F4C1CEA410FA2EBD3
:1054F000D15318BF9CEA026F00F03B804FF0004C84
:105500004CEA00204CEA012121FA03FC10EB0C0CC0
:105510001ED202F1FF325FEA1C2040EBC25038BFBE
:1055200070471CF07F0F4FEA400C18BFBCF17F4F53
:1055300038BF7047C3F12003994008BF20F0010035
:10554000BCF17F4F38BF7047A0F1C04000F085BA72
:105550004FEA3C00000A40EBC25028BF1CF0FF0F8E
:105560004FEA400CE6D018BFBCF17F4F38BF704700
:10557000EAE79CEA026F05D010EA5C0F08BF00F072
:105580000040704710B500F022FA00BF64FBBE3E39
:10559000401058BFC0F14040491058BFC1F14041D0
:1055A0008142EFF3008070474FF47F0C1CEAD01269
:1055B0001EBF1CEAD11392EA0C0F93EA0C0F00F005
:1055C000858090EA010F48BF42F4807240F4000CDD
:1055D00041F400002CF07F4120F07F4000B5814273
:1055E000A2EB03020FF2081CACEB504EC0F100001E
:1055F0009EF800E04FEA4E0E00FB0EFC38BF49005B
:105600004FEA2C1C02F5FA020CFB0EF34FEACE1EF9
:105610004FEA112C4FEAC1210EEB635E42EB2242AE
:105620000EFB0CFC4FEA1C5300FB03114FEA112C3C
:105630004FEA01310EFB0CFC4FEADC4C00FB0C1175
:10564000C14228BF09184CEB03335DF804EB10EBA3
:10565000410143EBC250B2F57C0F38BF704729D5EA
:1056600012F0F00F1CBF00F1C04000F00040704786
:10567000008182838485868788898B8C8D8E8F912B
:105680009293959697999A9C9D9FA0A2A3A5A7A84F
:10569000AAACAEB0B2B3B5B7B9BCBEC0C2C5C7C97B
:1056A000CCCED1D4D7D9DCDFE2E6E9ECF0F3F7FADF
:1056B000FE0000004FEA400C0CF1807CBCF17E4FF4
:1056C00028BF7047B0F1C04000F0C7B990EA010FA1
:1056D0000CEAD11348BF42F48072624538BF63457B
:1056E00007D213F47F0F16D080EA010000F00040CB
:1056F000704710B500F06BF9097EFC3E00F005B86C
:1057000080EA010000F00040704780EA010000F0EC
:10571000004000F0A2B912F47F0F04BF02487047A6
:1057200080EA010000F099B90000C07F50EA010C46
:1057300000F113801CF5000F58BFBCF5000F01D419
:105740008842704707D710F5000F58BF11F5000FBA
:1057500015D488427047894270471CF5000F04D564
:10576000BCF5000FF7D5814270474FF0807C1CEBF1
:10577000400F38BF1CEB410F01D28142704710B57A
:1057800000F025F9922449004FF000504FF080516D
:10579000FFF7FEBE41000B0ED3F19E0208D950F474
:1057A00000034FEA032323FA02F048BF4042704748
:1057B00010B500F00CF900BF49922480002070471A
:1057C0006FF0004282EA200070470000C10DD1F165
:1057D0009E0206DB4FEA002343F0004323FA02F067
:1057E0007047004207D54FEA4001B1F1FE4F02D2A7
:1057F0004FF00000704710B500F0E9F8499224809E
:10580000002070476FEA20007047000010F0004150
:1058100048BF4042B0FA80F310FA03F2C3F19D038F
:105820000BD051EAC35101EB1220530638BF704729
:1058300000F1010008BF20F001007047B0FA80F3CA
:1058400010FA03F2C3F19D030AD0D90501EB12202F
:10585000530638BF704700F1010008BF20F0010077
:105860007047000050EA010C00F113801CF5000F96
:1058700058BFBCF5000F01D48842704707D710F518
:10588000000F58BF11F5000F15D4884270478942A8
:1058900070471CF5000F04D5BCF5000FF7D5814209
:1058A00070474FF0807C1CEB400F38BF1CEB410F62
:1058B00001D28142704710B500F089F89224490066
:1058C0004FF000504FF08051FFF762BE4FF47F0C55
:1058D0001CEAD0121EBF1CEAD11392EA0C0F93EA05
:1058E0000C0F00F0478090EA010F48BF42F480722D
:1058F0004FF0004C4CEA00204CEA012102EB03027D
:10590000A0FB0113A2F50002002918BF43F0010318
:105910005B0028BF4FEA330342EB22425FEA132CBD
:105920004CEBC2502EBFBCEB436FB2F57C0F7047FF
:105930004FEA036CBCF1004F08BF20F00100B2F544
:105940007C0F38BF70470BD582F0FF0212F5803F05
:10595000C8BF704700F1C040D8BF00F0004070479A
:1059600000F5000C5FEA4C0C48BF7047B0F1C04036
:1059700000F073B890EA010F0CEAD11348BF42F46B
:105980008072624538BF634504D280EA010000F0AE
:105990000040704710B500F01AF800BF8900013EC2
:1059A00000F007B800F009B85FEA410C5FEA1C6C30
:1059B00008D080EA010000F050B85FEA400C5FEACE
:1059C0001C6CF6D14FF00040A0F5800070470EF13E
:1059D000020E2EF0030E5EF8044B244204D44FEA6C
:1059E0004102B2F17F4F11D84FEA4003B3F17F4F2C
:1059F0000CD80ED14FEAD07CB2F17F4F0CEB4C0C9F
:105A00000CF1020C08BF4CEBD17C04E04FF0080C09
:105A100001E04FEAD17C0CEB4C0324FA03F404F0D0
:105A20000704B4F1040C06D20EEB840CBDE8104060
:105A30004CF0010C6047DFE80CF0070802024FF061
:105A40000040A0F5800010BD0846420018BFD2F10A
:105A5000807288BF00F0004010BDFF2141EAD050A5
:105A6000C005704751EA000C00F113801CF5000FCF
:105A700058BFBCF5000F01D48142704707D711F51C
:105A8000000F58BF10F5000F15D4814270478942AE
:105A900070471CF5000F04D5BCF5000FF7D5884200
:105AA00070474FF0807C1CEB410F38BF1CEB400F60
:105AB00001D28842704780EA010081EA000180EA51
:105AC0000100FFF7F8BE80F0004090EA010F7FF57B
:105AD00004AD81F0004100F008B8000090EA010F29
